:200000000C945F000C9487000C9487000C9487000C9487000C9487000C9487000C949003C4
:200020000C9487000C9487000C9487000C9487000C9487000C9487000C9487000C94870088
:200040000C9446030C9487000C9487000C9487000C9487000C9487000C9487000C948700A6
:200060000C9487000C9487000200000000240027002A0000000008000201000003040700A2
:200080000000000000000001020408102040800102040810200102040810200000000025BE
:2000A0000028002B0004040404040404040202020202020303030303030073077F0711247A
:2000C0001FBECFEFD8E0DEBFCDBF12E0A0E0B1E0E0E0F4E102C005900D92A838B107D9F7AE
:2000E00022E0A8E8B2E001C01D92A63DB207E1F710E0CEE5D0E004C02197FE010E94CC08B4
:20010000CD35D107C9F70E943B040C94F3090C94000090E0FC01ED58FF4F2491FC01E95736
:20012000FF4F3491FC01EB55FF4FE491EE2309F43CC0222339F1233091F038F42130A9F049
:20014000223001F584B58F7D12C0273091F02830A1F02430B9F4809180008F7D03C080910D
:2001600080008F77809380000DC084B58F7784BD09C08091B0008F7703C08091B0008F7DF9
:200180008093B000F0E0EE0FFF1FE556FF4FA591B4919FB7F894611104C08C913095382358
:2001A00002C0EC913E2B3C939FBF0895CF93DF9390E0FC01E957FF4F2491FC01EB55FF4FBE
:2001C0008491882361F190E0880F991FFC01E759FF4FC591D491FC01E556FF4FA591B49107
:2001E000611109C09FB7F8948881209582238883EC912E230BC0623061F49FB7F894888109
:20020000322F309583238883EC912E2B2C939FBF06C08FB7F894E8812E2B28838FBFDF9151
:20022000CF9108953FB7F8948091A2029091A302A091A402B091A50226B5A89B05C02F3FB4
:2002400019F00196A11DB11D3FBFBA2FA92F982F8827820F911DA11DB11DBC01CD0142E0C5
:20026000660F771F881F991F4A95D1F708958F929F92AF92BF92CF92DF92EF92FF926B019C
:200280007C010E9412014B015C01C114D104E104F104F1F00E941201DC01CB01881999097D
:2002A000AA09BB09883E9340A105B10570F321E0C21AD108E108F10888EE880E83E0981EB2
:2002C000A11CB11CC114D104E104F10419F7DDCFFF90EF90DF90CF90BF90AF909F908F909C
:2002E000089590910001891324C0E8E6F0E0E4919FEF90930001E130B9F098F0E230C9F4E9
:20030000909170009D7F9093700091E09093B0009091B100987F94609093B1001092B30053
:2003200008C010926E0005C090916F009D7F90936F0060E00C9489007F928F929F92AF92D5
:20034000BF92CF92DF92EF92FF920F931F93CF93DF93FC014A01AA24BB24782CC32ED42EB4
:20036000E52EFF24BC2DA22F8085882361F0889E40011124792C8C9D60011124BD2D829F81
:2003800070011124AF2D9685D385E184F2849D1308C0CB01880F991F680F791F6E0D7F1DD4
:2003A0001CC0660F771F660F771F6E0D7F1D052F1127222733277B01E90EF11C811102C051
:2003C000202F09C090E0809F6001819FD00C909FD00C11242D2DE701288383859B01280F11
:2003E000311DE90178828485EB01C80FD11DB8838585FB01E80FF11DA083DF91CF911F9128
:00000001FF
