:200000000C945F000C9487000C9487000C9487000C9487000C9487000C9487000C949003C4
:200020000C9487000C9487000C9487000C9487000C9487000C9487000C9487000C94870088
:200040000C9446030C9487000C9487000C9487000C9487000C9487000C9487000C948700A6
:200060000C9487000C9487000200000000240027002A0000000008000201000003040700A2
:200080000000000000000001020408102040800102040810200102040810200000000025BE
:2000A0000028002B0004040404040404040202020202020303030303030073077F0711247A
:2000C0001FBECFEFD8E0DEBFCDBF12E0A0E0B1E0E0E0F4E102C005900D92A838B107D9F7AE
:2000E00022E0A8E8B2E001C01D92A63DB207E1F710E0CEE5D0E004C02197FE010E94CC08B4
:20010000CD35D107C9F70E943B040C94F3090C94000090E0FC01ED58FF4F2491FC01E95736
:20012000FF4F3491FC01EB55FF4FE491EE2309F43CC0222339F1233091F038F42130A9F049
:20014000223001F584B58F7D12C0273091F02830A1F02430B9F4809180008F7D03C080910D
:2001600080008F77809380000DC084B58F7784BD09C08091B0008F7703C08091B0008F7DF9
:200180008093B000F0E0EE0FFF1FE556FF4FA591B4919FB7F894611104C08C913095382358
:2001A00002C0EC913E2B3C939FBF0895CF93DF9390E0FC01E957FF4F2491FC01EB55FF4FBE
:2001C0008491882361F190E0880F991FFC01E759FF4FC591D491FC01E556FF4FA591B49107
:2001E000611109C09FB7F8948881209582238883EC912E230BC0623061F49FB7F894888109
:20020000322F309583238883EC912E2B2C939FBF06C08FB7F894E8812E2B28838FBFDF9151
:20022000CF9108953FB7F8948091A2029091A302A091A402B091A50226B5A89B05C02F3FB4
:2002400019F00196A11DB11D3FBFBA2FA92F982F8827820F911DA11DB11DBC01CD0142E0C5
:20026000660F771F881F991F4A95D1F708958F929F92AF92BF92CF92DF92EF92FF926B019C
:200280007C010E9412014B015C01C114D104E104F104F1F00E941201DC01CB01881999097D
:2002A000AA09BB09883E9340A105B10570F321E0C21AD108E108F10888EE880E83E0981EB2
:2002C000A11CB11CC114D104E104F10419F7DDCFFF90EF90DF90CF90BF90AF909F908F909C
:2002E000089590910001891324C0E8E6F0E0E4919FEF90930001E130B9F098F0E230C9F4E9
:20030000909170009D7F9093700091E09093B0009091B100987F94609093B1001092B30053
:2003200008C010926E0005C090916F009D7F90936F0060E00C9489007F928F929F92AF92D5
:20034000BF92CF92DF92EF92FF920F931F93CF93DF93FC014A01AA24BB24782CC32ED42EB4
:20036000E52EFF24BC2DA22F8085882361F0889E40011124792C8C9D60011124BD2D829F81
:2003800070011124AF2D9685D385E184F2849D1308C0CB01880F991F680F791F6E0D7F1DD4
:2003A0001CC0660F771F660F771F6E0D7F1D052F1127222733277B01E90EF11C811102C051
:2003C000202F09C090E0809F6001819FD00C909FD00C11242D2DE701288383859B01280F11
:2003E000311DE90178828485EB01C80FD11DB8838585FB01E80FF11DA083DF91CF911F9128
:200400000F91FF90EF90DF90CF90BF90AF909F908F907F900895CF92DF92EF92FF920F9352
:200420001F93CF93DF93CDB7DEB729970FB6F894DEBF0FBECDBF8C01DC0119968D919C91B2
:200440001A97892B09F4B8C0F801C784D088E188F2880E9412016C157D058E059F0548F418
:200460000E941201D8011F966D937D938D939C9352970E941201F801C784D088E188F288BD
:20048000DC01CB018C199D09AE09BF098C329140A105B105C8F2F894D80114968D919C91EA
:2004A00015979A8389831996ED91FC911A977F01BFEFEB1AFB0A80818987F801908103881E
:2004C000F489E02DD80155968C91992309F430C09081982B98879081809589238F838F8121
:2004E0008C8388E08B8358856F8149853B812C8189819A81D701508347FD252F3A95208399
:20050000262F39F0441F00C000006083000000C0F2CF38E04D9160830000019761F7D80134
:200520005496FC93EE93539749873B832C833AC09081982B98879081809589238F838F81B9
:200540008E8388E08D8358856F8149853D812E8189819A81D701508347FD252F00C000C022
:20056000208300C000C000C000C000C060830000262F3A9541F0441F000000C000C000C03D
:2005800000C000C0E8CF38E04D9100C0608300C0019709F7D8015496FC93EE9353974987A6
:2005A0003D832E839A83898378940E941201F8016787708B818B928B29960FB6F894DEBF28
:2005C0000FBECDBFDF91CF911F910F91FF90EF90DF90CF900895CF92DF92EF92FF92CF93E3
:2005E000DF936B017C01C0E0D0E08091BE029091BF02C817D90718F0C0E0D0E013C0A7010B
:200600009601BE018CEB92E00E949C018CEB92E00E940B0264E670E080E090E00E94370180
:200620002196E3CF8091A8029091A902C817D90798F4A7019601BE0186EA92E00E949C0160
:2006400086EA92E00E940B0264E670E080E090E00E9437012196E6CFDF91CF91FF90EF907B
:20066000DF90CF900895CF93DF93EC018E819F8197FD07C061E00E94D60060E08E810E941A
:20068000890081E08983DF91CF9108951F920F920FB60F9211242F933F938F939F93AF93E0
:2006A000BF9380919E0290919F02A091A002B091A10230919D0223E0230F2D3720F401961A
:2006C000A11DB11D05C026E8230F0296A11DB11D20939D0280939E0290939F02A093A002C7
:2006E000B093A1028091A2029091A302A091A402B091A5020196A11DB11D8093A2029093DD
:20070000A302A093A402B093A502BF91AF919F918F913F912F910F900FBE0F901F9018959A
:200720001F920F920FB60F9211242F933F934F935F936F937F938F939F93AF93BF93EF93E6
:20074000FF9380918F0290919002A0919102B0919202892B8A2B8B2B51F190918A02E0919A
:200760008B02F0918C0280818927808380918F0290919002A0919102B091920218161906EE
:200780001A061B06C4F480918F0290919002A0919102B09192020197A109B10980938F02D2
:2007A00090939002A0939102B093920204C0809100010E947101FF91EF91BF91AF919F912D
:2007C0008F917F916F915F914F913F912F910F900FBE0F901F9018950F931F93CF93DF93FA
:2007E000EC018B01198218861F86188A198A1A8A81E08E878B871C8692E09D87888383E08B
:2008000090E09D838C830E94D2089A878987009751F023E0FC0111922A95E9F781E090E0A1
:200820009B838A8304C01D821C821B821A821F830E838981882341F061E0802F0E94D600D2
:2008400060E0802F0E948900F801EB55FF4FE491F0E0EE0FFF1FE556FF4F859194919C8BAC
:200860008B8BF801E957FF4FE491ED8BDF91CF911F910F910895CF93DF9300D000D01F920C
:20088000CDB7DEB7789484B5826084BD84B5816084BD85B5826085BD85B5816085BD8091B0
:2008A0006E00816080936E0010928100809181008260809381008091810081608093810036
:2008C000809180008160809380008091B10084608093B1008091B00081608093B000809133
:2008E0007A00846080937A0080917A00826080937A0080917A00816080937A0080917A008F
:20090000806880937A001092C10082E090E0909389028093880200918802109189020E305D
:2009200011055CF461E0802F0E94D6000F5F1F4F1093890200938802EECF8CEB92E00E947A
:20094000330386EA92E00E9433038CEB92E00E940B0286EA92E00E940B0261E088E00E9433
:20096000D60080E490E090939C0280939B0288248A94982C540102E010E060E070E082E3B2
:2009800090E00E94EB0260E070E08FEF90E00E94EB0260E072E380E090E00E94EB0260E017
:2009A0007FEF80E090E00E94EB0262E370E080E090E00E94EB026FEF70E080E090E00E9456
:2009C000EB021093890200938802E0908802F09089028EE0E816F10494F461E08E2D0E9453
:2009E00089006CE271E080E090E00E9437019FEFE91AF90AF0928902E0928802E6CF109330
:200A0000890200938802E0908802F0908902EEE0EE16F10494F460E08E2D0E9489006CE266
:200A200071E080E090E00E943701FFEFEF1AFF0AF0928902E0928802E6CF1093890200933C
:200A40008802E0908802F09089028CE0E816F10464F460E08E2D0E9489009FEFE91AF90A96
:200A6000F0928902E0928802ECCF6CE271E080E090E00E943701E7E0F1E0FC83EB8387E07D
:200A800092E09A838983212C312C80919B0290919C02281639060CF0B1C1E981FA81C19083
:200AA000D190FA83E98380910001883021F08F3F09F08BC105C0E8E6F0E0F491FD8375C061
:200AC00088E080930001E8E6F0E0F491FD83FF3F09F47BC1F13009F443C040F1F23009F013
:200AE00064C01092B0001092B1008091B00082608093B0008091B10081608093B100EDEA89
:200B0000F0E08491E82FF0E0EE0FFF1FE556FF4F8591949190938C0280938B02EFE8F0E032
:200B2000849180938A02F2E0FD83D8C114BC15BC84B5826084BD85B5816085BDEDEAF0E015
:200B40008491E82FF0E0EE0FFF1FE556FF4F85919491EFE8F0E0849180938E021D82BEC13D
:200B600010928000109281008091810088608093810080918100816080938100EDEAF0E074
:200B80008491E82FF0E0EE0FFF1FE556FF4F85919491EFE8F0E0849180938D0261E088E073
:200BA0000E94D600F1E0FD83A8C08D8187FD0DC161E088E00E94D6008D818D7F09F09DC013
:200BC000E12CF12C60E072E18AE790E0A70196010E948B0829013A01BA01A901415051094E
:200BE000610971094F3F51056105710509F008F447C060E472E48FE090E0A70196010E94FB
:200C00008B08BA01A90141505109610971099D819230E9F44F3F51056105710509F008F49B
:200C2000FDC060E970ED83E090E0A70196010E948B08BA01A90141505109610971094F3F48
:200C400051056105710509F030F583E04FC04F3F510561057105B1F0A8F068E478EE81E0C6
:200C600090E0A70196010E948B08BA01A9014150510961097109ED81EE2309F4D1C026C168
:200C800081E001C082E0FD81F11130C095B5987F892B85BD6AC068E478EE81E090E0A701B4
:200CA00096010E948B08BA01A90141505109610971094F3F51056105710509F008F4ACC013
:200CC00064E274EF80E090E0A70196010E948B08BA01A90141505109610971094F3F51050F
:200CE0006105710511F008F0CAC085E09091B100987F892B8093B10031C0E12CF12C60E074
:200D000072E18AE790E0A70196010E948B08BA01A90141505109610971094115510581E0EA
:200D20006807710580F068E478EE81E090E0A70196010E948B08BA01A901415051096109AD
:200D4000710983E001C081E09D81913039F490918100987F892B8093810016C0ED81E13032
:200D600099F0E23019F1E11130C047BD8092970290929802A0929902B0929A0280916E0057
:200D8000826080936E0021C050938900409388008092930290929402A0929502B092960246
:200DA00080916F00826080936F000FC04093B30080928F0290929002A0929102B092920208
:200DC00080917000826080937000EB81FC816191719181919191FC83EB8320E030E048E4F3
:200DE00053E40E94F6070E949E070E94370188E00E947101FFEF2F1A3F0A47CE60ED77E047
:200E000080E090E00E94370180E090E0892B09F4B4CD0E940000AFCD84E068CF82E066CFD6
:200E20004F3F51056105710541F138F162E17AE780E090E0A70196010E948B08BA01A9014A
:200E400041505109610971094F3F51056105710591F088F0D301C2013AE0B595A7959795A7
:200E600087953A95D1F7AC01BD01415051096109710985E00BCF84E009CF83E007CF62E18E
:200E80007AE780E090E0A70196010E948B08BA01A90141505109610971094F3F510561052F
:200EA000710591F088F0D301C2012AE0B595A795979587952A95D1F7AC01BD014150510977
:200EC0006109710987E012CF86E010CF4F3F51056105710509F098F684E0D5CE61E088E0AA
:200EE0000E94D6006DCE6DE070E08CEB92E00E94EC036CE070E086EA92E00C94EC0380910A
:200F0000AF029091B0020E946A098091AC029091AD0297FD03C060E00E94D6008091C502C2
:200F20009091C6020E946A098091C2029091C30297FD03C060E00C94D60008950E94D507D0
:200F400088F09F5798F0B92F9927B751B0F0E1F0660F771F881F991F1AF0BA95C9F714C023
:200F6000B13091F00E94EF07B1E008950C94EF07672F782F8827B85F39F0B93FCCF38695B5
:200F800077956795B395D9F73EF490958095709561957F4F8F4F9F4F089557FD9058440F04
:200FA000551F59F05F3F71F04795880F97FB991F61F09F3F79F0879508951216130614060C
:200FC000551FF2CF4695F1DF08C0161617061806991FF1CF86957105610508940895E894DE
:200FE000BB2766277727CB0197F908950E9409080C947A080E946C0838F00E94730820F0AB
:20100000952311F00C9463080C94690811240C94F0070E94CD0770F3959FC1F3950F50E09A
:20102000551F629FF001729FBB27F00DB11D639FAA27F00DB11DAA1F649F6627B00DA11D1A
:20104000661F829F2227B00DA11D621F739FB00DA11D621F839FA00D611D221F749F33279C
:20106000A00D611D231F849F600D211D822F762F6A2F11249F5750409AF0F1F088234AF03B
:20108000EE0FFF1FBB1F661F771F881F91505040A9F79E3F510580F00C9463080C94F00743
:2010A0005F3FE4F3983ED4F3869577956795B795F795E7959F5FC1F7FE2B880F911D969558
:2010C000879597F9089597F99F6780E870E060E008959FEF80EC089500240A9416161706FA
:2010E00018060906089500240A9412161306140605060895092E0394000C11F4882352F095
:20110000BB0F40F4BF2B11F460FF04C06F5F7F4F8F4F9F4F0895052E97FB1EF400940E94AD
:20112000A20857FD07D00E94AA0807FC03D04EF40C94A20850954095309521953F4F4F4FC3
:201140005F4F089590958095709561957F4F8F4F9F4F0895A1E21A2EAA1BBB1BFD010DC0A7
:20116000AA1FBB1FEE1FFF1FA217B307E407F50720F0A21BB30BE40BF50B661F771F881F0B
:20118000991F1A9469F760957095809590959B01AC01BD01CF010895EE0FFF1F0590F491AC
:2011A000E02D09940F931F93CF93DF938230910510F482E090E0E091D402F091D50220E0A0
:2011C00030E0A0E0B0E0309719F1408151810281138148175907C8F08417950769F41097C2
:2011E00031F012960C93129713961C9327C00093D4021093D50222C02115310519F042170C
:20120000530718F49A01BD01EF01DF01F801DBCF21153105F9F0281B390B2430310580F4C2
:201220008A819B816115710521F0FB019383828304C09093D5028093D402FE01329644C001
:20124000FE01E20FF31F8193919322503109398328833AC02091D2023091D302232B41F4A9
:2012600020910301309104013093D3022093D20220910101309102012115310541F42DB7D8
:201280003EB74091050150910601241B350BE091D202F091D302E217F307A0F42E1B3F0B66
:2012A0002817390778F0AC014E5F5F4F2417350748F04E0F5F1F5093D3024093D202819342
:2012C000919302C0E0E0F0E0CF01DF91CF911F910F910895CF93DF93009709F481C0FC0165
:2012E000329713821282A091D402B091D502109781F420813181820F931F2091D2023091E5
:20130000D3022817390751F5F093D302E093D20267C0ED0120E030E0CE17DF0740F44A81A5
:201320005B819E0141155105F1F0EA01F5CFD383C28340815181840F951FC817D90759F475
:2013400088819981840F951F0296918380838A819B81938382832115310529F4F093D5024F
:20136000E093D4023DC0E901FB83EA8349915991C40FD51FEC17FD0761F480819181840FC5
:20138000951F0296E90199838883828193819B838A83E0E0F0E012968D919C9113970097EA
:2013A00019F0FD01DC01F7CF8D919C9111979D012E5F3F4F820F931F2091D2023091D30279
:2013C0002817390769F4309729F41092D5021092D40202C013821282B093D302A093D20252
:2013E000DF91CF91089510E0CEE5D0E004C0FE010E94CC082196CF35D107C9F7F894FFCF47
:20140000FF0000D60280000000803F0000803F0000803F0000803F0000803F0000803F00FB
:2014200000803F0000803F0000803F0000803F0000803F0000803F0000C03F0000003F00F4
:201440000000400000803F0000803F0000803F0000803F0000803F0000803F0000803F0013
:2014600000803F0000803F0000803F0000803F0000803F0000C03F0000003F000000400033
:2014800000803F0000803F0000803F0000803F0000803F0000003F0000003F0000803F0054
:2014A00000803F0000803F0000003F0000003F0000803F0000803F0000803F0000803F0034
:2014C00000803F0000803F0000803F0000803F0000803F0000803F0000803F0000803F0014
:2014E00000803F0000003F0000003F0000803F0000803F0000803F0000803F0000C03F00B4
:2015000000003F000000405E015E018901B901B90189015E014A01260126014A015E015E06
:20152000014A014A015E015E018901B901B90189015E014A01260126014A015E014A0126BB
:201540000126014A014A015E0126014A015E0189015E0126014A015E0189015E014A012689
:20156000014A01DD00FFFF5E015E018901B901B90189015E0189014A01260126014A015ED3
:20158000014A012601260100FFFFFFFFFFFFFFFFFFFFFFFFFFFFFFFFFFFFFFFFFFFFFFFFC9
:2015A000FFFFFFFFFFFFFFFFFFFFFFFFFFFFFFFFFFFFFFFFFFFFFFFFFFFFFFFFFFFFFFFF4B
:2015C000FFFFFFFFFFFFFFFFFFFFFFFFFFFFFFFFFFFFFFFFFFFFFFFFFFFFFFFFFFFFFFFF2B
:2015E000FFFFFFFFFFFFFFFFFFFFFFFFFFFFFFFFFFFFFFFFFFFFFFFFFFFFFFFFFFFFFFFF0B
:20160000FFFFFFFFFFFFFFFFFFFFFFFFFFFFFFFFFFFFFFFFFFFFFFFFFFFFFFFFFFFFFFFFEA
:207E0000112484B714BE81FFF0D085E08093810082E08093C00088E18093C10086E08093FC
:207E2000C20080E18093C4008EE0C9D0259A86E020E33CEF91E0309385002093840096BBAD
:207E4000B09BFECF1D9AA8958150A9F7CC24DD2488248394B5E0AB2EA1E19A2EF3E0BF2E79
:207E6000A2D0813461F49FD0082FAFD0023811F0013811F484E001C083E08DD089C0823404
:207E800011F484E103C0853419F485E0A6D080C0853579F488D0E82EFF2485D0082F10E0A0
:207EA000102F00270E291F29000F111F8ED068016FC0863521F484E090D080E0DECF84364D
:207EC00009F040C070D06FD0082F6DD080E0C81680E7D80618F4F601B7BEE895C0E0D1E0ED
:207EE00062D089930C17E1F7F0E0CF16F0E7DF0618F0F601B7BEE89568D007B600FCFDCF1A
:207F0000A601A0E0B1E02C9130E011968C91119790E0982F8827822B932B1296FA010C016F
:207F200087BEE89511244E5F5F4FF1E0A038BF0751F7F601A7BEE89507B600FCFDCF97BE85
:207F4000E89526C08437B1F42ED02DD0F82E2BD03CD0F601EF2C8F010F5F1F4F84911BD0B8
:207F6000EA94F801C1F70894C11CD11CFA94CF0CD11C0EC0853739F428D08EE10CD085E9AE
:207F80000AD08FE07ACF813511F488E018D01DD080E101D065CF982F8091C00085FFFCCF0A
:207FA0009093C60008958091C00087FFFCCF8091C00084FD01C0A8958091C6000895E0E68F
:207FC000F0E098E1908380830895EDDF803219F088E0F5DFFFCF84E1DECF1F93182FE3DF47
:207FE0001150E9F7F2DF1F91089580E0E8DFEE27FF270994FFFFFFFFFFFFFFFFFFFF040425
:00000001FF
